{"contracts/MicroLend.sol":{"MicroLend":{"abi":[{"anonymous":false,"inputs":[{"indexed":true,"internalType":"uint256","name":"loanId","type":"uint256"}],"name":"LoanCancelled","type":"event"},{"anonymous":false,"inputs":[{"indexed":true,"internalType":"uint256","name":"loanId","type":"uint256"},{"indexed":true,"internalType":"address","name":"lender","type":"address"},{"indexed":false,"internalType":"uint256","name":"fundedTimestamp","type":"uint256"},{"indexed":false,"internalType":"uint256","name":"repaymentDueDate","type":"uint256"}],"name":"LoanFunded","type":"event"},{"anonymous":false,"inputs":[{"indexed":true,"internalType":"uint256","name":"loanId","type":"uint256"},{"indexed":false,"internalType":"uint256","name":"amountRepaid","type":"uint256"}],"name":"LoanRepaid","type":"event"},{"anonymous":false,"inputs":[{"indexed":true,"internalType":"uint256","name":"loanId","type":"uint256"},{"indexed":true,"internalType":"address","name":"borrower","type":"address"},{"indexed":false,"internalType":"uint256","name":"amount","type":"uint256"},{"indexed":false,"internalType":"uint256","name":"interestRateBPS","type":"uint256"},{"indexed":false,"internalType":"uint256","name":"durationSeconds","type":"uint256"},{"indexed":false,"internalType":"enum MicroLend.CollateralType","name":"collateralType","type":"uint8"}],"name":"LoanRequested","type":"event"},{"inputs":[],"name":"MAX_INTEREST_RATE_BPS","outputs":[{"internalType":"uint256","name":"","type":"uint256"}],"stateMutability":"view","type":"function"},{"inputs":[],"name":"MIN_DURATION_SECONDS","outputs":[{"internalType":"uint256","name":"","type":"uint256"}],"stateMutability":"view","type":"function"},{"inputs":[{"internalType":"uint256","name":"","type":"uint256"}],"name":"loans","outputs":[{"internalType":"uint256","name":"id","type":"uint256"},{"internalType":"address","name":"borrower","type":"address"},{"internalType":"address","name":"lender","type":"address"},{"internalType":"uint256","name":"amountRequested","type":"uint256"},{"internalType":"uint256","name":"interestRateBPS","type":"uint256"},{"internalType":"uint256","name":"durationSeconds","type":"uint256"},{"internalType":"uint256","name":"requestedTimestamp","type":"uint256"},{"internalType":"uint256","name":"fundedTimestamp","type":"uint256"},{"internalType":"uint256","name":"repaymentDueDate","type":"uint256"},{"internalType":"uint256","name":"amountRepaid","type":"uint256"},{"internalType":"enum MicroLend.LoanStatus","name":"status","type":"uint8"},{"internalType":"string","name":"purpose","type":"string"},{"internalType":"string","name":"detailsURI","type":"string"},{"internalType":"enum MicroLend.CollateralType","name":"collateralType","type":"uint8"},{"internalType":"address","name":"collateralContract","type":"address"},{"internalType":"uint256","name":"collateralValueOrId","type":"uint256"}],"stateMutability":"view","type":"function"},{"inputs":[{"internalType":"address","name":"","type":"address"},{"internalType":"uint256","name":"","type":"uint256"}],"name":"loansByBorrower","outputs":[{"internalType":"uint256","name":"","type":"uint256"}],"stateMutability":"view","type":"function"},{"inputs":[{"internalType":"address","name":"","type":"address"},{"internalType":"uint256","name":"","type":"uint256"}],"name":"loansByLender","outputs":[{"internalType":"uint256","name":"","type":"uint256"}],"stateMutability":"view","type":"function"},{"inputs":[],"name":"nextLoanId","outputs":[{"internalType":"uint256","name":"","type":"uint256"}],"stateMutability":"view","type":"function"},{"inputs":[{"internalType":"uint256","name":"_amountRequestedWei","type":"uint256"},{"internalType":"string","name":"_purpose","type":"string"},{"internalType":"string","name":"_detailsURI","type":"string"},{"internalType":"uint256","name":"_durationSeconds","type":"uint256"},{"internalType":"uint256","name":"_interestRateBPS","type":"uint256"},{"internalType":"enum MicroLend.CollateralType","name":"_collateralType","type":"uint8"},{"internalType":"address","name":"_collateralContract","type":"address"},{"internalType":"uint256","name":"_collateralValueOrId","type":"uint256"}],"name":"requestLoan","outputs":[],"stateMutability":"nonpayable","type":"function"}],"evm":{"bytecode":{"linkReferences":{},"object":"6080806040523461001b576001600055610c8190816100218239f35b600080fdfe6080604052600436101561001257600080fd5b60003560e01c80634b7f1e5a14610a085780635108f0bf146109ea5780636becc9f314610992578063709ae4411461097557806387c514591461095757806392b99778146101b95763e1ec3c681461006957600080fd5b346101b45760203660031901126101b457600435600052600160205260406000208054600160a01b6001900360018301541691600160a01b60019003600282015416916003820154600483015493600584015460068501546007860154600887015491600988015493600a89015460ff1699600b8a016100e890610b58565b976100f5600c8c01610b58565b97600d8c01549b600e01549a6040519e8f91825260208201526040015260608d015260808c015260a08b015260c08a015260e0890152610100880152610120870152600585101561019e5761016161017092879661014088015261020080610160890152870190610bfe565b90858203610180870152610bfe565b916101826101a0850160ff8316610c3e565b60081c6001600160a01b03166101c08401526101e08301520390f35b634e487b7160e01b600052602160045260246000fd5b600080fd5b346101b4576101003660031901126101b45760243567ffffffffffffffff81116101b4576101eb903690600401610ac7565b60443567ffffffffffffffff81116101b45761020b903690600401610ac7565b90600460a43510156101b45760c4356001600160a01b03811690036101b457600260005414610912576002600055600435156108c257620151806064351061087d5760843515158061086f575b1561082b578051156107e65760009060a4356106f65760c4356001600160a01b03166106955760e435610636575b6002549182600052600160205260406000209183835560018301336bffffffffffffffffffffffff60a01b825416179055600435600384015560843560048401556064356005840155426006840155600a830160ff19815416905580519067ffffffffffffffff821161048f578190610302600b860154610b1e565b601f81116105e3575b50602090601f831160011461057157600092610566575b50508160011b916000199060031b1c191617600b8301555b835167ffffffffffffffff811161048f57610358600c840154610b1e565b601f811161051f575b506020601f82116001146104b05781929394956000926104a5575b50508160011b916000199060031b1c191617600c8301555b600d82019061019e5780546001600160a81b03191660a43560ff161760c43560081b610100600160a81b031617905560e435600e919091015533600090815260036020526040902080546801000000000000000081101561048f576103fe91600182018155610a77565b9080549160031b600019928385831b921b1916179055600254908114610479576001016002556040519060043582526084356020830152606435604083015261044c6060830160a435610c3e565b7f5f19000fa9e0f0a6b43e9732d4b129ea695bbb498d3b44864426d985bb77f5e960803393a36001600055005b634e487b7160e01b600052601160045260246000fd5b634e487b7160e01b600052604160045260246000fd5b01519050858061037c565b600c840160005260206000209060005b601f1984168110610507575060019394959683601f198116106104ee575b505050811b01600c830155610394565b015160001960f88460031b161c191690558580806104de565b9091602060018192858b0151815501930191016104c0565b600c84016000526020600020601f830160051c81016020841061055f575b601f830160051c82018110610553575050610361565b6000815560010161053d565b508061053d565b015190508680610322565b9250600b85016000526020600020906000935b601f19841685106105c8576001945083601f198116106105af575b505050811b01600b83015561033a565b015160001960f88460031b161c1916905586808061059f565b81810151835560209485019460019093019290910190610584565b909150600b85016000526020600020601f840160051c81016020851061062f575b90849392915b601f830160051c8201811061062057505061030b565b6000815585945060010161060a565b5080610604565b60405162461bcd60e51b815260206004820152603160248201527f4d6963726f4c656e643a2056616c75652f4944206d757374206265203020666f6044820152701c88139bdb994818dbdb1b185d195c985b607a1b6064820152608490fd5b60405162461bcd60e51b815260206004820152603360248201527f4d6963726f4c656e643a20436f6e7472616374206d7573742062652030783020604482015272199bdc88139bdb994818dbdb1b185d195c985b606a1b6064820152608490fd5b6000915060a43560011480156107d6575b156102865760c4356001600160a01b0316156107795760e4356102865760405162461bcd60e51b815260206004820152602760248201527f4d6963726f4c656e643a20436f6c6c61746572616c2076616c75652f49442072604482015266195c5d5a5c995960ca1b6064820152608490fd5b60405162461bcd60e51b815260206004820152602f60248201527f4d6963726f4c656e643a20436f6c6c61746572616c20636f6e7472616374206160448201526e19191c995cdcc81c995c5d5a5c9959608a1b6064820152608490fd5b506000915060a435600214610707565b60405162461bcd60e51b815260206004820152601b60248201527f4d6963726f4c656e643a20507572706f736520726571756972656400000000006044820152606490fd5b606460405162461bcd60e51b815260206004820152602060248201527f4d6963726f4c656e643a20496e76616c696420696e74657265737420726174656044820152fd5b506113886084351115610258565b60405162461bcd60e51b815260206004820152601d60248201527f4d6963726f4c656e643a204475726174696f6e20746f6f2073686f72740000006044820152606490fd5b60405162461bcd60e51b815260206004820152602260248201527f4d6963726f4c656e643a20416d6f756e74206d75737420626520706f73697469604482015261766560f01b6064820152608490fd5b60405162461bcd60e51b815260206004820152601f60248201527f5265656e7472616e637947756172643a207265656e7472616e742063616c6c006044820152606490fd5b346101b45760003660031901126101b4576020600254604051908152f35b346101b45760003660031901126101b45760206040516113888152f35b346101b45760403660031901126101b4576109ab610a61565b6001600160a01b03166000908152600460205260409020805460243591908210156101b4576020916109dc91610a77565b90546040519160031b1c8152f35b346101b45760003660031901126101b4576020604051620151808152f35b346101b45760403660031901126101b457610a21610a61565b6001600160a01b03166000908152600360205260409020805460243591908210156101b457602091610a5291610a77565b90549060031b1c604051908152f35b600435906001600160a01b03821682036101b457565b8054821015610a8f5760005260206000200190600090565b634e487b7160e01b600052603260045260246000fd5b90601f8019910116810190811067ffffffffffffffff82111761048f57604052565b81601f820112156101b45780359067ffffffffffffffff821161048f5760405192610afc601f8401601f191660200185610aa5565b828452602083830101116101b457816000926020809301838601378301015290565b90600182811c92168015610b4e575b6020831014610b3857565b634e487b7160e01b600052602260045260246000fd5b91607f1691610b2d565b9060405191826000825492610b6c84610b1e565b908184526001948581169081600014610bdb5750600114610b98575b5050610b9692500383610aa5565b565b9093915060005260209081600020936000915b818310610bc3575050610b9693508201013880610b88565b85548884018501529485019487945091830191610bab565b915050610b9694506020925060ff191682840152151560051b8201013880610b88565b919082519283825260005b848110610c2a575050826000602080949584010152601f8019910116010190565b602081830181015184830182015201610c09565b90600482101561019e575256fea2646970667358221220b7dcae5768a3995aa9173a952aa3a28e93e53c637d7d8a64d69fa8d573eb06b464736f6c63430008130033","opcodes":"PUSH1 0x80 DUP1 PUSH1 0x40 MSTORE CALLVALUE PUSH2 0x1B JUMPI PUSH1 0x1 PUSH1 0x0 SSTORE PUSH2 0xC81 SWAP1 DUP2 PUSH2 0x21 DUP3 CODECOPY RETURN JUMPDEST PUSH1 0x0 DUP1 REVERT INVALID PUSH1 0x80 PUSH1 0x40 MSTORE PUSH1 0x4 CALLDATASIZE LT ISZERO PUSH2 0x12 JUMPI PUSH1 0x0 DUP1 REVERT JUMPDEST PUSH1 0x0 CALLDATALOAD PUSH1 0xE0 SHR DUP1 PUSH4 0x4B7F1E5A EQ PUSH2 0xA08 JUMPI DUP1 PUSH4 0x5108F0BF EQ PUSH2 0x9EA JUMPI DUP1 PUSH4 0x6BECC9F3 EQ PUSH2 0x992 JUMPI DUP1 PUSH4 0x709AE441 EQ PUSH2 0x975 JUMPI DUP1 PUSH4 0x87C51459 EQ PUSH2 0x957 JUMPI DUP1 PUSH4 0x92B99778 EQ PUSH2 0x1B9 JUMPI PUSH4 0xE1EC3C68 EQ PUSH2 0x69 JUMPI PUSH1 0x0 DUP1 REVERT JUMPDEST CALLVALUE PUSH2 0x1B4 JUMPI PUSH1 0x20 CALLDATASIZE PUSH1 0x3 NOT ADD SLT PUSH2 0x1B4 JUMPI PUSH1 0x4 CALLDATALOAD PUSH1 0x0 MSTORE PUSH1 0x1 PUSH1 0x20 MSTORE PUSH1 0x40 PUSH1 0x0 KECCAK256 DUP1 SLOAD PUSH1 0x1 PUSH1 0xA0 SHL PUSH1 0x1 SWAP1 SUB PUSH1 0x1 DUP4 ADD SLOAD AND SWAP2 PUSH1 0x1 PUSH1 0xA0 SHL PUSH1 0x1 SWAP1 SUB PUSH1 0x2 DUP3 ADD SLOAD AND SWAP2 PUSH1 0x3 DUP3 ADD SLOAD PUSH1 0x4 DUP4 ADD SLOAD SWAP4 PUSH1 0x5 DUP5 ADD SLOAD PUSH1 0x6 DUP6 ADD SLOAD PUSH1 0x7 DUP7 ADD SLOAD PUSH1 0x8 DUP8 ADD SLOAD SWAP2 PUSH1 0x9 DUP9 ADD SLOAD SWAP4 PUSH1 0xA DUP10 ADD SLOAD PUSH1 0xFF AND SWAP10 PUSH1 0xB DUP11 ADD PUSH2 0xE8 SWAP1 PUSH2 0xB58 JUMP JUMPDEST SWAP8 PUSH2 0xF5 PUSH1 0xC DUP13 ADD PUSH2 0xB58 JUMP JUMPDEST SWAP8 PUSH1 0xD DUP13 ADD SLOAD SWAP12 PUSH1 0xE ADD SLOAD SWAP11 PUSH1 0x40 MLOAD SWAP15 DUP16 SWAP2 DUP3 MSTORE PUSH1 0x20 DUP3 ADD MSTORE PUSH1 0x40 ADD MSTORE PUSH1 0x60 DUP14 ADD MSTORE PUSH1 0x80 DUP13 ADD MSTORE PUSH1 0xA0 DUP12 ADD MSTORE PUSH1 0xC0 DUP11 ADD MSTORE PUSH1 0xE0 DUP10 ADD MSTORE PUSH2 0x100 DUP9 ADD MSTORE PUSH2 0x120 DUP8 ADD MSTORE PUSH1 0x5 DUP6 LT ISZERO PUSH2 0x19E JUMPI PUSH2 0x161 PUSH2 0x170 SWAP3 DUP8 SWAP7 PUSH2 0x140 DUP9 ADD MSTORE PUSH2 0x200 DUP1 PUSH2 0x160 DUP10 ADD MSTORE DUP8 ADD SWAP1 PUSH2 0xBFE JUMP JUMPDEST SWAP1 DUP6 DUP3 SUB PUSH2 0x180 DUP8 ADD MSTORE PUSH2 0xBFE JUMP JUMPDEST SWAP2 PUSH2 0x182 PUSH2 0x1A0 DUP6 ADD PUSH1 0xFF DUP4 AND PUSH2 0xC3E JUMP JUMPDEST PUSH1 0x8 SHR PUSH1 0x1 PUSH1 0x1 PUSH1 0xA0 SHL SUB AND PUSH2 0x1C0 DUP5 ADD MSTORE PUSH2 0x1E0 DUP4 ADD MSTORE SUB SWAP1 RETURN JUMPDEST PUSH4 0x4E487B71 PUSH1 0xE0 SHL PUSH1 0x0 MSTORE PUSH1 0x21 PUSH1 0x4 MSTORE PUSH1 0x24 PUSH1 0x0 REVERT JUMPDEST PUSH1 0x0 DUP1 REVERT JUMPDEST CALLVALUE PUSH2 0x1B4 JUMPI PUSH2 0x100 CALLDATASIZE PUSH1 0x3 NOT ADD SLT PUSH2 0x1B4 JUMPI PUSH1 0x24 CALLDATALOAD PUSH8 0xFFFFFFFFFFFFFFFF DUP2 GT PUSH2 0x1B4 JUMPI PUSH2 0x1EB SWAP1 CALLDATASIZE SWAP1 PUSH1 0x4 ADD PUSH2 0xAC7 JUMP JUMPDEST PUSH1 0x44 CALLDATALOAD PUSH8 0xFFFFFFFFFFFFFFFF DUP2 GT PUSH2 0x1B4 JUMPI PUSH2 0x20B SWAP1 CALLDATASIZE SWAP1 PUSH1 0x4 ADD PUSH2 0xAC7 JUMP JUMPDEST SWAP1 PUSH1 0x4 PUSH1 0xA4 CALLDATALOAD LT ISZERO PUSH2 0x1B4 JUMPI PUSH1 0xC4 CALLDATALOAD PUSH1 0x1 PUSH1 0x1 PUSH1 0xA0 SHL SUB DUP2 AND SWAP1 SUB PUSH2 0x1B4 JUMPI PUSH1 0x2 PUSH1 0x0 SLOAD EQ PUSH2 0x912 JUMPI PUSH1 0x2 PUSH1 0x0 SSTORE PUSH1 0x4 CALLDATALOAD ISZERO PUSH2 0x8C2 JUMPI PUSH3 0x15180 PUSH1 0x64 CALLDATALOAD LT PUSH2 0x87D JUMPI PUSH1 0x84 CALLDATALOAD ISZERO ISZERO DUP1 PUSH2 0x86F JUMPI JUMPDEST ISZERO PUSH2 0x82B JUMPI DUP1 MLOAD ISZERO PUSH2 0x7E6 JUMPI PUSH1 0x0 SWAP1 PUSH1 0xA4 CALLDATALOAD PUSH2 0x6F6 JUMPI PUSH1 0xC4 CALLDATALOAD PUSH1 0x1 PUSH1 0x1 PUSH1 0xA0 SHL SUB AND PUSH2 0x695 JUMPI PUSH1 0xE4 CALLDATALOAD PUSH2 0x636 JUMPI JUMPDEST PUSH1 0x2 SLOAD SWAP2 DUP3 PUSH1 0x0 MSTORE PUSH1 0x1 PUSH1 0x20 MSTORE PUSH1 0x40 PUSH1 0x0 KECCAK256 SWAP2 DUP4 DUP4 SSTORE PUSH1 0x1 DUP4 ADD CALLER PUSH12 0xFFFFFFFFFFFFFFFFFFFFFFFF PUSH1 0xA0 SHL DUP3 SLOAD AND OR SWAP1 SSTORE PUSH1 0x4 CALLDATALOAD PUSH1 0x3 DUP5 ADD SSTORE PUSH1 0x84 CALLDATALOAD PUSH1 0x4 DUP5 ADD SSTORE PUSH1 0x64 CALLDATALOAD PUSH1 0x5 DUP5 ADD SSTORE TIMESTAMP PUSH1 0x6 DUP5 ADD SSTORE PUSH1 0xA DUP4 ADD PUSH1 0xFF NOT DUP2 SLOAD AND SWAP1 SSTORE DUP1 MLOAD SWAP1 PUSH8 0xFFFFFFFFFFFFFFFF DUP3 GT PUSH2 0x48F JUMPI DUP2 SWAP1 PUSH2 0x302 PUSH1 0xB DUP7 ADD SLOAD PUSH2 0xB1E JUMP JUMPDEST PUSH1 0x1F DUP2 GT PUSH2 0x5E3 JUMPI JUMPDEST POP PUSH1 0x20 SWAP1 PUSH1 0x1F DUP4 GT PUSH1 0x1 EQ PUSH2 0x571 JUMPI PUSH1 0x0 SWAP3 PUSH2 0x566 JUMPI JUMPDEST POP POP DUP2 PUSH1 0x1 SHL SWAP2 PUSH1 0x0 NOT SWAP1 PUSH1 0x3 SHL SHR NOT AND OR PUSH1 0xB DUP4 ADD SSTORE JUMPDEST DUP4 MLOAD PUSH8 0xFFFFFFFFFFFFFFFF DUP2 GT PUSH2 0x48F JUMPI PUSH2 0x358 PUSH1 0xC DUP5 ADD SLOAD PUSH2 0xB1E JUMP JUMPDEST PUSH1 0x1F DUP2 GT PUSH2 0x51F JUMPI JUMPDEST POP PUSH1 0x20 PUSH1 0x1F DUP3 GT PUSH1 0x1 EQ PUSH2 0x4B0 JUMPI DUP2 SWAP3 SWAP4 SWAP5 SWAP6 PUSH1 0x0 SWAP3 PUSH2 0x4A5 JUMPI JUMPDEST POP POP DUP2 PUSH1 0x1 SHL SWAP2 PUSH1 0x0 NOT SWAP1 PUSH1 0x3 SHL SHR NOT AND OR PUSH1 0xC DUP4 ADD SSTORE JUMPDEST PUSH1 0xD DUP3 ADD SWAP1 PUSH2 0x19E JUMPI DUP1 SLOAD PUSH1 0x1 PUSH1 0x1 PUSH1 0xA8 SHL SUB NOT AND PUSH1 0xA4 CALLDATALOAD PUSH1 0xFF AND OR PUSH1 0xC4 CALLDATALOAD PUSH1 0x8 SHL PUSH2 0x100 PUSH1 0x1 PUSH1 0xA8 SHL SUB AND OR SWAP1 SSTORE PUSH1 0xE4 CALLDATALOAD PUSH1 0xE SWAP2 SWAP1 SWAP2 ADD SSTORE CALLER PUSH1 0x0 SWAP1 DUP2 MSTORE PUSH1 0x3 PUSH1 0x20 MSTORE PUSH1 0x40 SWAP1 KECCAK256 DUP1 SLOAD PUSH9 0x10000000000000000 DUP2 LT ISZERO PUSH2 0x48F JUMPI PUSH2 0x3FE SWAP2 PUSH1 0x1 DUP3 ADD DUP2 SSTORE PUSH2 0xA77 JUMP JUMPDEST SWAP1 DUP1 SLOAD SWAP2 PUSH1 0x3 SHL PUSH1 0x0 NOT SWAP3 DUP4 DUP6 DUP4 SHL SWAP3 SHL NOT AND OR SWAP1 SSTORE PUSH1 0x2 SLOAD SWAP1 DUP2 EQ PUSH2 0x479 JUMPI PUSH1 0x1 ADD PUSH1 0x2 SSTORE PUSH1 0x40 MLOAD SWAP1 PUSH1 0x4 CALLDATALOAD DUP3 MSTORE PUSH1 0x84 CALLDATALOAD PUSH1 0x20 DUP4 ADD MSTORE PUSH1 0x64 CALLDATALOAD PUSH1 0x40 DUP4 ADD MSTORE PUSH2 0x44C PUSH1 0x60 DUP4 ADD PUSH1 0xA4 CALLDATALOAD PUSH2 0xC3E JUMP JUMPDEST PUSH32 0x5F19000FA9E0F0A6B43E9732D4B129EA695BBB498D3B44864426D985BB77F5E9 PUSH1 0x80 CALLER SWAP4 LOG3 PUSH1 0x1 PUSH1 0x0 SSTORE STOP JUMPDEST PUSH4 0x4E487B71 PUSH1 0xE0 SHL PUSH1 0x0 MSTORE PUSH1 0x11 PUSH1 0x4 MSTORE PUSH1 0x24 PUSH1 0x0 REVERT JUMPDEST PUSH4 0x4E487B71 PUSH1 0xE0 SHL PUSH1 0x0 MSTORE PUSH1 0x41 PUSH1 0x4 MSTORE PUSH1 0x24 PUSH1 0x0 REVERT JUMPDEST ADD MLOAD SWAP1 POP DUP6 DUP1 PUSH2 0x37C JUMP JUMPDEST PUSH1 0xC DUP5 ADD PUSH1 0x0 MSTORE PUSH1 0x20 PUSH1 0x0 KECCAK256 SWAP1 PUSH1 0x0 JUMPDEST PUSH1 0x1F NOT DUP5 AND DUP2 LT PUSH2 0x507 JUMPI POP PUSH1 0x1 SWAP4 SWAP5 SWAP6 SWAP7 DUP4 PUSH1 0x1F NOT DUP2 AND LT PUSH2 0x4EE JUMPI JUMPDEST POP POP POP DUP2 SHL ADD PUSH1 0xC DUP4 ADD SSTORE PUSH2 0x394 JUMP JUMPDEST ADD MLOAD PUSH1 0x0 NOT PUSH1 0xF8 DUP5 PUSH1 0x3 SHL AND SHR NOT AND SWAP1 SSTORE DUP6 DUP1 DUP1 PUSH2 0x4DE JUMP JUMPDEST SWAP1 SWAP2 PUSH1 0x20 PUSH1 0x1 DUP2 SWAP3 DUP6 DUP12 ADD MLOAD DUP2 SSTORE ADD SWAP4 ADD SWAP2 ADD PUSH2 0x4C0 JUMP JUMPDEST PUSH1 0xC DUP5 ADD PUSH1 0x0 MSTORE PUSH1 0x20 PUSH1 0x0 KECCAK256 PUSH1 0x1F DUP4 ADD PUSH1 0x5 SHR DUP2 ADD PUSH1 0x20 DUP5 LT PUSH2 0x55F JUMPI JUMPDEST PUSH1 0x1F DUP4 ADD PUSH1 0x5 SHR DUP3 ADD DUP2 LT PUSH2 0x553 JUMPI POP POP PUSH2 0x361 JUMP JUMPDEST PUSH1 0x0 DUP2 SSTORE PUSH1 0x1 ADD PUSH2 0x53D JUMP JUMPDEST POP DUP1 PUSH2 0x53D JUMP JUMPDEST ADD MLOAD SWAP1 POP DUP7 DUP1 PUSH2 0x322 JUMP JUMPDEST SWAP3 POP PUSH1 0xB DUP6 ADD PUSH1 0x0 MSTORE PUSH1 0x20 PUSH1 0x0 KECCAK256 SWAP1 PUSH1 0x0 SWAP4 JUMPDEST PUSH1 0x1F NOT DUP5 AND DUP6 LT PUSH2 0x5C8 JUMPI PUSH1 0x1 SWAP5 POP DUP4 PUSH1 0x1F NOT DUP2 AND LT PUSH2 0x5AF JUMPI JUMPDEST POP POP POP DUP2 SHL ADD PUSH1 0xB DUP4 ADD SSTORE PUSH2 0x33A JUMP JUMPDEST ADD MLOAD PUSH1 0x0 NOT PUSH1 0xF8 DUP5 PUSH1 0x3 SHL AND SHR NOT AND SWAP1 SSTORE DUP7 DUP1 DUP1 PUSH2 0x59F JUMP JUMPDEST DUP2 DUP2 ADD MLOAD DUP4 SSTORE PUSH1 0x20 SWAP5 DUP6 ADD SWAP5 PUSH1 0x1 SWAP1 SWAP4 ADD SWAP3 SWAP1 SWAP2 ADD SWAP1 PUSH2 0x584 JUMP JUMPDEST SWAP1 SWAP2 POP PUSH1 0xB DUP6 ADD PUSH1 0x0 MSTORE PUSH1 0x20 PUSH1 0x0 KECCAK256 PUSH1 0x1F DUP5 ADD PUSH1 0x5 SHR DUP2 ADD PUSH1 0x20 DUP6 LT PUSH2 0x62F JUMPI JUMPDEST SWAP1 DUP5 SWAP4 SWAP3 SWAP2 JUMPDEST PUSH1 0x1F DUP4 ADD PUSH1 0x5 SHR DUP3 ADD DUP2 LT PUSH2 0x620 JUMPI POP POP PUSH2 0x30B JUMP JUMPDEST PUSH1 0x0 DUP2 SSTORE DUP6 SWAP5 POP PUSH1 0x1 ADD PUSH2 0x60A JUMP JUMPDEST POP DUP1 PUSH2 0x604 JUMP JUMPDEST PUSH1 0x40 MLOAD PUSH3 0x461BCD PUSH1 0xE5 SHL DUP2 MSTORE PUSH1 0x20 PUSH1 0x4 DUP3 ADD MSTORE PUSH1 0x31 PUSH1 0x24 DUP3 ADD MSTORE PUSH32 0x4D6963726F4C656E643A2056616C75652F4944206D757374206265203020666F PUSH1 0x44 DUP3 ADD MSTORE PUSH17 0x1C88139BDB994818DBDB1B185D195C985B PUSH1 0x7A SHL PUSH1 0x64 DUP3 ADD MSTORE PUSH1 0x84 SWAP1 REVERT JUMPDEST PUSH1 0x40 MLOAD PUSH3 0x461BCD PUSH1 0xE5 SHL DUP2 MSTORE PUSH1 0x20 PUSH1 0x4 DUP3 ADD MSTORE PUSH1 0x33 PUSH1 0x24 DUP3 ADD MSTORE PUSH32 0x4D6963726F4C656E643A20436F6E7472616374206D7573742062652030783020 PUSH1 0x44 DUP3 ADD MSTORE PUSH19 0x199BDC88139BDB994818DBDB1B185D195C985B PUSH1 0x6A SHL PUSH1 0x64 DUP3 ADD MSTORE PUSH1 0x84 SWAP1 REVERT JUMPDEST PUSH1 0x0 SWAP2 POP PUSH1 0xA4 CALLDATALOAD PUSH1 0x1 EQ DUP1 ISZERO PUSH2 0x7D6 JUMPI JUMPDEST ISZERO PUSH2 0x286 JUMPI PUSH1 0xC4 CALLDATALOAD PUSH1 0x1 PUSH1 0x1 PUSH1 0xA0 SHL SUB AND ISZERO PUSH2 0x779 JUMPI PUSH1 0xE4 CALLDATALOAD PUSH2 0x286 JUMPI PUSH1 0x40 MLOAD PUSH3 0x461BCD PUSH1 0xE5 SHL DUP2 MSTORE PUSH1 0x20 PUSH1 0x4 DUP3 ADD MSTORE PUSH1 0x27 PUSH1 0x24 DUP3 ADD MSTORE PUSH32 0x4D6963726F4C656E643A20436F6C6C61746572616C2076616C75652F49442072 PUSH1 0x44 DUP3 ADD MSTORE PUSH7 0x195C5D5A5C9959 PUSH1 0xCA SHL PUSH1 0x64 DUP3 ADD MSTORE PUSH1 0x84 SWAP1 REVERT JUMPDEST PUSH1 0x40 MLOAD PUSH3 0x461BCD PUSH1 0xE5 SHL DUP2 MSTORE PUSH1 0x20 PUSH1 0x4 DUP3 ADD MSTORE PUSH1 0x2F PUSH1 0x24 DUP3 ADD MSTORE PUSH32 0x4D6963726F4C656E643A20436F6C6C61746572616C20636F6E74726163742061 PUSH1 0x44 DUP3 ADD MSTORE PUSH15 0x19191C995CDCC81C995C5D5A5C9959 PUSH1 0x8A SHL PUSH1 0x64 DUP3 ADD MSTORE PUSH1 0x84 SWAP1 REVERT JUMPDEST POP PUSH1 0x0 SWAP2 POP PUSH1 0xA4 CALLDATALOAD PUSH1 0x2 EQ PUSH2 0x707 JUMP JUMPDEST PUSH1 0x40 MLOAD PUSH3 0x461BCD PUSH1 0xE5 SHL DUP2 MSTORE PUSH1 0x20 PUSH1 0x4 DUP3 ADD MSTORE PUSH1 0x1B PUSH1 0x24 DUP3 ADD MSTORE PUSH32 0x4D6963726F4C656E643A20507572706F73652072657175697265640000000000 PUSH1 0x44 DUP3 ADD MSTORE PUSH1 0x64 SWAP1 REVERT JUMPDEST PUSH1 0x64 PUSH1 0x40 MLOAD PUSH3 0x461BCD PUSH1 0xE5 SHL DUP2 MSTORE PUSH1 0x20 PUSH1 0x4 DUP3 ADD MSTORE PUSH1 0x20 PUSH1 0x24 DUP3 ADD MSTORE PUSH32 0x4D6963726F4C656E643A20496E76616C696420696E7465726573742072617465 PUSH1 0x44 DUP3 ADD MSTORE REVERT JUMPDEST POP PUSH2 0x1388 PUSH1 0x84 CALLDATALOAD GT ISZERO PUSH2 0x258 JUMP JUMPDEST PUSH1 0x40 MLOAD PUSH3 0x461BCD PUSH1 0xE5 SHL DUP2 MSTORE PUSH1 0x20 PUSH1 0x4 DUP3 ADD MSTORE PUSH1 0x1D PUSH1 0x24 DUP3 ADD MSTORE PUSH32 0x4D6963726F4C656E643A204475726174696F6E20746F6F2073686F7274000000 PUSH1 0x44 DUP3 ADD MSTORE PUSH1 0x64 SWAP1 REVERT JUMPDEST PUSH1 0x40 MLOAD PUSH3 0x461BCD PUSH1 0xE5 SHL DUP2 MSTORE PUSH1 0x20 PUSH1 0x4 DUP3 ADD MSTORE PUSH1 0x22 PUSH1 0x24 DUP3 ADD MSTORE PUSH32 0x4D6963726F4C656E643A20416D6F756E74206D75737420626520706F73697469 PUSH1 0x44 DUP3 ADD MSTORE PUSH2 0x7665 PUSH1 0xF0 SHL PUSH1 0x64 DUP3 ADD MSTORE PUSH1 0x84 SWAP1 REVERT JUMPDEST PUSH1 0x40 MLOAD PUSH3 0x461BCD PUSH1 0xE5 SHL DUP2 MSTORE PUSH1 0x20 PUSH1 0x4 DUP3 ADD MSTORE PUSH1 0x1F PUSH1 0x24 DUP3 ADD MSTORE PUSH32 0x5265656E7472616E637947756172643A207265656E7472616E742063616C6C00 PUSH1 0x44 DUP3 ADD MSTORE PUSH1 0x64 SWAP1 REVERT JUMPDEST CALLVALUE PUSH2 0x1B4 JUMPI PUSH1 0x0 CALLDATASIZE PUSH1 0x3 NOT ADD SLT PUSH2 0x1B4 JUMPI PUSH1 0x20 PUSH1 0x2 SLOAD PUSH1 0x40 MLOAD SWAP1 DUP2 MSTORE RETURN JUMPDEST CALLVALUE PUSH2 0x1B4 JUMPI PUSH1 0x0 CALLDATASIZE PUSH1 0x3 NOT ADD SLT PUSH2 0x1B4 JUMPI PUSH1 0x20 PUSH1 0x40 MLOAD PUSH2 0x1388 DUP2 MSTORE RETURN JUMPDEST CALLVALUE PUSH2 0x1B4 JUMPI PUSH1 0x40 CALLDATASIZE PUSH1 0x3 NOT ADD SLT PUSH2 0x1B4 JUMPI PUSH2 0x9AB PUSH2 0xA61 JUMP JUMPDEST PUSH1 0x1 PUSH1 0x1 PUSH1 0xA0 SHL SUB AND PUSH1 0x0 SWAP1 DUP2 MSTORE PUSH1 0x4 PUSH1 0x20 MSTORE PUSH1 0x40 SWAP1 KECCAK256 DUP1 SLOAD PUSH1 0x24 CALLDATALOAD SWAP2 SWAP1 DUP3 LT ISZERO PUSH2 0x1B4 JUMPI PUSH1 0x20 SWAP2 PUSH2 0x9DC SWAP2 PUSH2 0xA77 JUMP JUMPDEST SWAP1 SLOAD PUSH1 0x40 MLOAD SWAP2 PUSH1 0x3 SHL SHR DUP2 MSTORE RETURN JUMPDEST CALLVALUE PUSH2 0x1B4 JUMPI PUSH1 0x0 CALLDATASIZE PUSH1 0x3 NOT ADD SLT PUSH2 0x1B4 JUMPI PUSH1 0x20 PUSH1 0x40 MLOAD PUSH3 0x15180 DUP2 MSTORE RETURN JUMPDEST CALLVALUE PUSH2 0x1B4 JUMPI PUSH1 0x40 CALLDATASIZE PUSH1 0x3 NOT ADD SLT PUSH2 0x1B4 JUMPI PUSH2 0xA21 PUSH2 0xA61 JUMP JUMPDEST PUSH1 0x1 PUSH1 0x1 PUSH1 0xA0 SHL SUB AND PUSH1 0x0 SWAP1 DUP2 MSTORE PUSH1 0x3 PUSH1 0x20 MSTORE PUSH1 0x40 SWAP1 KECCAK256 DUP1 SLOAD PUSH1 0x24 CALLDATALOAD SWAP2 SWAP1 DUP3 LT ISZERO PUSH2 0x1B4 JUMPI PUSH1 0x20 SWAP2 PUSH2 0xA52 SWAP2 PUSH2 0xA77 JUMP JUMPDEST SWAP1 SLOAD SWAP1 PUSH1 0x3 SHL SHR PUSH1 0x40 MLOAD SWAP1 DUP2 MSTORE RETURN JUMPDEST PUSH1 0x4 CALLDATALOAD SWAP1 PUSH1 0x1 PUSH1 0x1 PUSH1 0xA0 SHL SUB DUP3 AND DUP3 SUB PUSH2 0x1B4 JUMPI JUMP JUMPDEST DUP1 SLOAD DUP3 LT ISZERO PUSH2 0xA8F JUMPI PUSH1 0x0 MSTORE PUSH1 0x20 PUSH1 0x0 KECCAK256 ADD SWAP1 PUSH1 0x0 SWAP1 JUMP JUMPDEST PUSH4 0x4E487B71 PUSH1 0xE0 SHL PUSH1 0x0 MSTORE PUSH1 0x32 PUSH1 0x4 MSTORE PUSH1 0x24 PUSH1 0x0 REVERT JUMPDEST SWAP1 PUSH1 0x1F DUP1 NOT SWAP2 ADD AND DUP2 ADD SWAP1 DUP2 LT PUSH8 0xFFFFFFFFFFFFFFFF DUP3 GT OR PUSH2 0x48F JUMPI PUSH1 0x40 MSTORE JUMP JUMPDEST DUP2 PUSH1 0x1F DUP3 ADD SLT ISZERO PUSH2 0x1B4 JUMPI DUP1 CALLDATALOAD SWAP1 PUSH8 0xFFFFFFFFFFFFFFFF DUP3 GT PUSH2 0x48F JUMPI PUSH1 0x40 MLOAD SWAP3 PUSH2 0xAFC PUSH1 0x1F DUP5 ADD PUSH1 0x1F NOT AND PUSH1 0x20 ADD DUP6 PUSH2 0xAA5 JUMP JUMPDEST DUP3 DUP5 MSTORE PUSH1 0x20 DUP4 DUP4 ADD ADD GT PUSH2 0x1B4 JUMPI DUP2 PUSH1 0x0 SWAP3 PUSH1 0x20 DUP1 SWAP4 ADD DUP4 DUP7 ADD CALLDATACOPY DUP4 ADD ADD MSTORE SWAP1 JUMP JUMPDEST SWAP1 PUSH1 0x1 DUP3 DUP2 SHR SWAP3 AND DUP1 ISZERO PUSH2 0xB4E JUMPI JUMPDEST PUSH1 0x20 DUP4 LT EQ PUSH2 0xB38 JUMPI JUMP JUMPDEST PUSH4 0x4E487B71 PUSH1 0xE0 SHL PUSH1 0x0 MSTORE PUSH1 0x22 PUSH1 0x4 MSTORE PUSH1 0x24 PUSH1 0x0 REVERT JUMPDEST SWAP2 PUSH1 0x7F AND SWAP2 PUSH2 0xB2D JUMP JUMPDEST SWAP1 PUSH1 0x40 MLOAD SWAP2 DUP3 PUSH1 0x0 DUP3 SLOAD SWAP3 PUSH2 0xB6C DUP5 PUSH2 0xB1E JUMP JUMPDEST SWAP1 DUP2 DUP5 MSTORE PUSH1 0x1 SWAP5 DUP6 DUP2 AND SWAP1 DUP2 PUSH1 0x0 EQ PUSH2 0xBDB JUMPI POP PUSH1 0x1 EQ PUSH2 0xB98 JUMPI JUMPDEST POP POP PUSH2 0xB96 SWAP3 POP SUB DUP4 PUSH2 0xAA5 JUMP JUMPDEST JUMP JUMPDEST SWAP1 SWAP4 SWAP2 POP PUSH1 0x0 MSTORE PUSH1 0x20 SWAP1 DUP2 PUSH1 0x0 KECCAK256 SWAP4 PUSH1 0x0 SWAP2 JUMPDEST DUP2 DUP4 LT PUSH2 0xBC3 JUMPI POP POP PUSH2 0xB96 SWAP4 POP DUP3 ADD ADD CODESIZE DUP1 PUSH2 0xB88 JUMP JUMPDEST DUP6 SLOAD DUP9 DUP5 ADD DUP6 ADD MSTORE SWAP5 DUP6 ADD SWAP5 DUP8 SWAP5 POP SWAP2 DUP4 ADD SWAP2 PUSH2 0xBAB JUMP JUMPDEST SWAP2 POP POP PUSH2 0xB96 SWAP5 POP PUSH1 0x20 SWAP3 POP PUSH1 0xFF NOT AND DUP3 DUP5 ADD MSTORE ISZERO ISZERO PUSH1 0x5 SHL DUP3 ADD ADD CODESIZE DUP1 PUSH2 0xB88 JUMP JUMPDEST SWAP2 SWAP1 DUP3 MLOAD SWAP3 DUP4 DUP3 MSTORE PUSH1 0x0 JUMPDEST DUP5 DUP2 LT PUSH2 0xC2A JUMPI POP POP DUP3 PUSH1 0x0 PUSH1 0x20 DUP1 SWAP5 SWAP6 DUP5 ADD ADD MSTORE PUSH1 0x1F DUP1 NOT SWAP2 ADD AND ADD ADD SWAP1 JUMP JUMPDEST PUSH1 0x20 DUP2 DUP4 ADD DUP2 ADD MLOAD DUP5 DUP4 ADD DUP3 ADD MSTORE ADD PUSH2 0xC09 JUMP JUMPDEST SWAP1 PUSH1 0x4 DUP3 LT ISZERO PUSH2 0x19E JUMPI MSTORE JUMP INVALID LOG2 PUSH5 0x6970667358 0x22 SLT KECCAK256 0xB7 0xDC 0xAE JUMPI PUSH9 0xA3995AA9173A952AA3 LOG2 DUP15 SWAP4 0xE5 EXTCODECOPY PUSH4 0x7D7D8A64 0xD6 SWAP16 0xA8 0xD5 PUSH20 0xEB06B464736F6C63430008130033000000000000 "},"methodIdentifiers":{"MAX_INTEREST_RATE_BPS()":"709ae441","MIN_DURATION_SECONDS()":"5108f0bf","loans(uint256)":"e1ec3c68","loansByBorrower(address,uint256)":"4b7f1e5a","loansByLender(address,uint256)":"6becc9f3","nextLoanId()":"87c51459","requestLoan(uint256,string,string,uint256,uint256,uint8,address,uint256)":"92b99778"}}}}}