{
  "_format": "hh-sol-artifact-1",
  "contractName": "MicroLend",
  "sourceName": "contracts/MicroLend.sol",
  "abi": [
    {
      "inputs": [],
      "name": "AlreadyFullyFunded",
      "type": "error"
    },
    {
      "inputs": [],
      "name": "AmountMustBePositive",
      "type": "error"
    },
    {
      "inputs": [],
      "name": "DurationMustBePositive",
      "type": "error"
    },
    {
      "inputs": [
        {
          "internalType": "enum MicroLend.LoanStatus",
          "name": "requiredStatus",
          "type": "uint8"
        },
        {
          "internalType": "enum MicroLend.LoanStatus",
          "name": "currentStatus",
          "type": "uint8"
        }
      ],
      "name": "IncorrectStatus",
      "type": "error"
    },
    {
      "inputs": [],
      "name": "InsufficientFunds",
      "type": "error"
    },
    {
      "inputs": [],
      "name": "InsufficientRepaymentAmount",
      "type": "error"
    },
    {
      "inputs": [
        {
          "internalType": "uint256",
          "name": "loanId",
          "type": "uint256"
        }
      ],
      "name": "LoanNotFound",
      "type": "error"
    },
    {
      "inputs": [],
      "name": "NotBorrower",
      "type": "error"
    },
    {
      "inputs": [],
      "name": "RepaymentFailed",
      "type": "error"
    },
    {
      "inputs": [],
      "name": "TransferFailed",
      "type": "error"
    },
    {
      "anonymous": false,
      "inputs": [
        {
          "indexed": true,
          "internalType": "uint256",
          "name": "loanId",
          "type": "uint256"
        },
        {
          "indexed": true,
          "internalType": "address",
          "name": "lender",
          "type": "address"
        },
        {
          "indexed": false,
          "internalType": "uint256",
          "name": "amountPaid",
          "type": "uint256"
        }
      ],
      "name": "LenderPaid",
      "type": "event"
    },
    {
      "anonymous": false,
      "inputs": [
        {
          "indexed": true,
          "internalType": "uint256",
          "name": "loanId",
          "type": "uint256"
        }
      ],
      "name": "LoanActivated",
      "type": "event"
    },
    {
      "anonymous": false,
      "inputs": [
        {
          "indexed": true,
          "internalType": "uint256",
          "name": "loanId",
          "type": "uint256"
        },
        {
          "indexed": true,
          "internalType": "address",
          "name": "borrower",
          "type": "address"
        },
        {
          "indexed": false,
          "internalType": "uint256",
          "name": "amount",
          "type": "uint256"
        },
        {
          "indexed": false,
          "internalType": "uint256",
          "name": "interestRate",
          "type": "uint256"
        },
        {
          "indexed": false,
          "internalType": "uint256",
          "name": "duration",
          "type": "uint256"
        }
      ],
      "name": "LoanCreated",
      "type": "event"
    },
    {
      "anonymous": false,
      "inputs": [
        {
          "indexed": true,
          "internalType": "uint256",
          "name": "loanId",
          "type": "uint256"
        }
      ],
      "name": "LoanDefaulted",
      "type": "event"
    },
    {
      "anonymous": false,
      "inputs": [
        {
          "indexed": true,
          "internalType": "uint256",
          "name": "loanId",
          "type": "uint256"
        },
        {
          "indexed": true,
          "internalType": "address",
          "name": "lender",
          "type": "address"
        },
        {
          "indexed": false,
          "internalType": "uint256",
          "name": "amount",
          "type": "uint256"
        }
      ],
      "name": "LoanFunded",
      "type": "event"
    },
    {
      "anonymous": false,
      "inputs": [
        {
          "indexed": true,
          "internalType": "uint256",
          "name": "loanId",
          "type": "uint256"
        },
        {
          "indexed": true,
          "internalType": "address",
          "name": "borrower",
          "type": "address"
        },
        {
          "indexed": false,
          "internalType": "uint256",
          "name": "repaymentAmount",
          "type": "uint256"
        }
      ],
      "name": "LoanRepaid",
      "type": "event"
    },
    {
      "inputs": [
        {
          "internalType": "uint256",
          "name": "",
          "type": "uint256"
        }
      ],
      "name": "allLoanIds",
      "outputs": [
        {
          "internalType": "uint256",
          "name": "",
          "type": "uint256"
        }
      ],
      "stateMutability": "view",
      "type": "function"
    },
    {
      "inputs": [
        {
          "internalType": "uint256",
          "name": "_loanId",
          "type": "uint256"
        }
      ],
      "name": "calculateRepaymentAmount",
      "outputs": [
        {
          "internalType": "uint256",
          "name": "",
          "type": "uint256"
        }
      ],
      "stateMutability": "view",
      "type": "function"
    },
    {
      "inputs": [
        {
          "internalType": "uint256",
          "name": "_amount",
          "type": "uint256"
        },
        {
          "internalType": "uint256",
          "name": "_interestRate",
          "type": "uint256"
        },
        {
          "internalType": "uint256",
          "name": "_durationDays",
          "type": "uint256"
        },
        {
          "internalType": "string",
          "name": "_purpose",
          "type": "string"
        }
      ],
      "name": "createLoan",
      "outputs": [],
      "stateMutability": "nonpayable",
      "type": "function"
    },
    {
      "inputs": [
        {
          "internalType": "uint256",
          "name": "_loanId",
          "type": "uint256"
        }
      ],
      "name": "fundLoan",
      "outputs": [],
      "stateMutability": "payable",
      "type": "function"
    },
    {
      "inputs": [],
      "name": "getAllLoanIds",
      "outputs": [
        {
          "internalType": "uint256[]",
          "name": "",
          "type": "uint256[]"
        }
      ],
      "stateMutability": "view",
      "type": "function"
    },
    {
      "inputs": [
        {
          "internalType": "uint256",
          "name": "_loanId",
          "type": "uint256"
        },
        {
          "internalType": "address",
          "name": "_lender",
          "type": "address"
        }
      ],
      "name": "getLenderInvestment",
      "outputs": [
        {
          "internalType": "uint256",
          "name": "",
          "type": "uint256"
        }
      ],
      "stateMutability": "view",
      "type": "function"
    },
    {
      "inputs": [
        {
          "internalType": "uint256",
          "name": "_loanId",
          "type": "uint256"
        }
      ],
      "name": "getLoanDetails",
      "outputs": [
        {
          "components": [
            {
              "internalType": "uint256",
              "name": "id",
              "type": "uint256"
            },
            {
              "internalType": "address payable",
              "name": "borrower",
              "type": "address"
            },
            {
              "internalType": "uint256",
              "name": "amount",
              "type": "uint256"
            },
            {
              "internalType": "uint256",
              "name": "interestRate",
              "type": "uint256"
            },
            {
              "internalType": "uint256",
              "name": "duration",
              "type": "uint256"
            },
            {
              "internalType": "string",
              "name": "purpose",
              "type": "string"
            },
            {
              "internalType": "enum MicroLend.LoanStatus",
              "name": "status",
              "type": "uint8"
            },
            {
              "internalType": "uint256",
              "name": "amountFunded",
              "type": "uint256"
            },
            {
              "internalType": "uint256",
              "name": "createdAt",
              "type": "uint256"
            },
            {
              "internalType": "uint256",
              "name": "dueDate",
              "type": "uint256"
            }
          ],
          "internalType": "struct MicroLend.Loan",
          "name": "",
          "type": "tuple"
        }
      ],
      "stateMutability": "view",
      "type": "function"
    },
    {
      "inputs": [
        {
          "internalType": "uint256",
          "name": "",
          "type": "uint256"
        },
        {
          "internalType": "address",
          "name": "",
          "type": "address"
        }
      ],
      "name": "investments",
      "outputs": [
        {
          "internalType": "uint256",
          "name": "",
          "type": "uint256"
        }
      ],
      "stateMutability": "view",
      "type": "function"
    },
    {
      "inputs": [
        {
          "internalType": "uint256",
          "name": "",
          "type": "uint256"
        },
        {
          "internalType": "uint256",
          "name": "",
          "type": "uint256"
        }
      ],
      "name": "loanLenders",
      "outputs": [
        {
          "internalType": "address",
          "name": "",
          "type": "address"
        }
      ],
      "stateMutability": "view",
      "type": "function"
    },
    {
      "inputs": [
        {
          "internalType": "uint256",
          "name": "",
          "type": "uint256"
        }
      ],
      "name": "loans",
      "outputs": [
        {
          "internalType": "uint256",
          "name": "id",
          "type": "uint256"
        },
        {
          "internalType": "address payable",
          "name": "borrower",
          "type": "address"
        },
        {
          "internalType": "uint256",
          "name": "amount",
          "type": "uint256"
        },
        {
          "internalType": "uint256",
          "name": "interestRate",
          "type": "uint256"
        },
        {
          "internalType": "uint256",
          "name": "duration",
          "type": "uint256"
        },
        {
          "internalType": "string",
          "name": "purpose",
          "type": "string"
        },
        {
          "internalType": "enum MicroLend.LoanStatus",
          "name": "status",
          "type": "uint8"
        },
        {
          "internalType": "uint256",
          "name": "amountFunded",
          "type": "uint256"
        },
        {
          "internalType": "uint256",
          "name": "createdAt",
          "type": "uint256"
        },
        {
          "internalType": "uint256",
          "name": "dueDate",
          "type": "uint256"
        }
      ],
      "stateMutability": "view",
      "type": "function"
    },
    {
      "inputs": [
        {
          "internalType": "uint256",
          "name": "_loanId",
          "type": "uint256"
        }
      ],
      "name": "markLoanAsDefaulted",
      "outputs": [],
      "stateMutability": "nonpayable",
      "type": "function"
    },
    {
      "inputs": [
        {
          "internalType": "uint256",
          "name": "_loanId",
          "type": "uint256"
        }
      ],
      "name": "repayLoan",
      "outputs": [],
      "stateMutability": "payable",
      "type": "function"
    }
  ],
  "bytecode": "0x608060405260008055348015601357600080fd5b5061262a806100236000396000f3fe6080604052600436106100a75760003560e01c8063846b909a11610064578063846b909a146101e05780638762f6fd146101fc578063ab7b1c8914610239578063b119723914610255578063b11b32d214610292578063e1ec3c68146102cf576100a7565b806315d9e96b146100ac5780631af9fea3146100d5578063222ff53d1461011257806341b881111461014f5780635c1bf8651461017857806366877b8d146101a3575b600080fd5b3480156100b857600080fd5b506100d360048036038101906100ce9190611a74565b610315565b005b3480156100e157600080fd5b506100fc60048036038101906100f79190611b55565b610528565b6040516101099190611ba4565b60405180910390f35b34801561011e57600080fd5b5061013960048036038101906101349190611bbf565b6105dd565b6040516101469190611ba4565b60405180910390f35b34801561015b57600080fd5b5061017660048036038101906101719190611bbf565b610601565b005b34801561018457600080fd5b5061018d610793565b60405161019a9190611caa565b60405180910390f35b3480156101af57600080fd5b506101ca60048036038101906101c59190611bbf565b6107eb565b6040516101d79190611ebd565b60405180910390f35b6101fa60048036038101906101f59190611bbf565b6109dd565b005b34801561020857600080fd5b50610223600480360381019061021e9190611edf565b610f59565b6040516102309190611f2e565b60405180910390f35b610253600480360381019061024e9190611bbf565b610fa7565b005b34801561026157600080fd5b5061027c60048036038101906102779190611bbf565b611527565b6040516102899190611ba4565b60405180910390f35b34801561029e57600080fd5b506102b960048036038101906102b49190611b55565b61173b565b6040516102c69190611ba4565b60405180910390f35b3480156102db57600080fd5b506102f660048036038101906102f19190611bbf565b611760565b60405161030c9a99989796959493929190611fb1565b60405180910390f35b6000840361034f576040517f5c2262de00000000000000000000000000000000000000000000000000000000815260040160405180910390fd5b60008203610389576040517fd331f24c00000000000000000000000000000000000000000000000000000000815260040160405180910390fd5b60008081548092919061039b90612083565b9190505550600080549050600062015180846103b791906120cb565b905060004290506000600160008581526020019081526020016000209050838160000181905550338160010160006101000a81548173ffffffffffffffffffffffffffffffffffffffff021916908373ffffffffffffffffffffffffffffffffffffffff1602179055508781600201819055508681600301819055508281600401819055508481600501908161044d9190612319565b5060008160060160006101000a81548160ff0219169083600381111561047657610475611d6c565b5b021790555060008160070181905550818160080181905550828261049a91906123eb565b816009018190555060048490806001815401808255809150506001900390600052602060002001600090919091909150553373ffffffffffffffffffffffffffffffffffffffff16847fb2cca1719ad611d325136b9c9a4357f412d33694d93c60d4c1b6e922d524cf598a8a876040516105169392919061241f565b60405180910390a35050505050505050565b60008060016000858152602001908152602001600020600001540361058457826040517f806b2c5e00000000000000000000000000000000000000000000000000000000815260040161057b9190611ba4565b60405180910390fd5b6002600084815260200190815260200160002060008373ffffffffffffffffffffffffffffffffffffffff1673ffffffffffffffffffffffffffffffffffffffff16815260200190815260200160002054905092915050565b600481815481106105ed57600080fd5b906000526020600020016000915090505481565b6000600160008381526020019081526020016000209050600081600001540361066157816040517f806b2c5e0000000000000000000000000000000000000000000000000000000081526004016106589190611ba4565b60405180910390fd5b6001600381111561067557610674611d6c565b5b8160060160009054906101000a900460ff16600381111561069957610698611d6c565b5b146106ef5760018160060160009054906101000a900460ff166040517fef9b55450000000000000000000000000000000000000000000000000000000081526004016106e6929190612456565b60405180910390fd5b80600901544211610735576040517f08c379a000000000000000000000000000000000000000000000000000000000815260040161072c906124cb565b60405180910390fd5b60038160060160006101000a81548160ff0219169083600381111561075d5761075c611d6c565b5b0217905550817f0789b7097e8066538cfaa1132488b132e14ba5f0c938c8b7aaf8cf40356aab0b60405160405180910390a25050565b606060048054806020026020016040519081016040528092919081815260200182805480156107e157602002820191906000526020600020905b8154815260200190600101908083116107cd575b5050505050905090565b6107f3611869565b600060016000848152602001908152602001600020600001540361084e57816040517f806b2c5e0000000000000000000000000000000000000000000000000000000081526004016108459190611ba4565b60405180910390fd5b6001600083815260200190815260200160002060405180610140016040529081600082015481526020016001820160009054906101000a900473ffffffffffffffffffffffffffffffffffffffff1673ffffffffffffffffffffffffffffffffffffffff1673ffffffffffffffffffffffffffffffffffffffff1681526020016002820154815260200160038201548152602001600482015481526020016005820180546108fb9061213c565b80601f01602080910402602001604051908101604052809291908181526020018280546109279061213c565b80156109745780601f1061094957610100808354040283529160200191610974565b820191906000526020600020905b81548152906001019060200180831161095757829003601f168201915b505050505081526020016006820160009054906101000a900460ff1660038111156109a2576109a1611d6c565b5b60038111156109b4576109b3611d6c565b5b815260200160078201548152602001600882015481526020016009820154815250509050919050565b60006001600083815260200190815260200160002090506000816000015403610a3d57816040517f806b2c5e000000000000000000000000000000000000000000000000000000008152600401610a349190611ba4565b60405180910390fd5b60006003811115610a5157610a50611d6c565b5b8160060160009054906101000a900460ff166003811115610a7557610a74611d6c565b5b14610acb5760008160060160009054906101000a900460ff166040517fef9b5545000000000000000000000000000000000000000000000000000000008152600401610ac2929190612456565b60405180910390fd5b60003403610b05576040517f356680b700000000000000000000000000000000000000000000000000000000815260040160405180910390fd5b8060020154816007015410610b46576040517f8d99950300000000000000000000000000000000000000000000000000000000815260040160405180910390fd5b6000349050600082600701548360020154610b6191906124eb565b905080821115610c245760008183610b7991906124eb565b905081925060003373ffffffffffffffffffffffffffffffffffffffff1682604051610ba490612550565b60006040518083038185875af1925050503d8060008114610be1576040519150601f19603f3d011682016040523d82523d6000602084013e610be6565b606091505b5050905080610c21576040517f90b8ec1800000000000000000000000000000000000000000000000000000000815260040160405180910390fd5b50505b6000821115610e1d57818360070154610c3d91906123eb565b8360070181905550816002600086815260200190815260200160002060003373ffffffffffffffffffffffffffffffffffffffff1673ffffffffffffffffffffffffffffffffffffffff16815260200190815260200160002054610ca191906123eb565b6002600086815260200190815260200160002060003373ffffffffffffffffffffffffffffffffffffffff1673ffffffffffffffffffffffffffffffffffffffff168152602001908152602001600020819055506000826002600087815260200190815260200160002060003373ffffffffffffffffffffffffffffffffffffffff1673ffffffffffffffffffffffffffffffffffffffff16815260200190815260200160002054610d5391906124eb565b03610dcd5760036000858152602001908152602001600020339080600181540180825580915050600190039060005260206000200160009091909190916101000a81548173ffffffffffffffffffffffffffffffffffffffff021916908373ffffffffffffffffffffffffffffffffffffffff1602179055505b3373ffffffffffffffffffffffffffffffffffffffff16847fbd7ef6c6281278f6c8ac4ae9ef2f205b52425813c288dd47c377cb6b59c5076e84604051610e149190611ba4565b60405180910390a35b8260020154836007015403610f535760018360060160006101000a81548160ff02191690836003811115610e5457610e53611d6c565b5b021790555060008360010160009054906101000a900473ffffffffffffffffffffffffffffffffffffffff1673ffffffffffffffffffffffffffffffffffffffff168460020154604051610ea790612550565b60006040518083038185875af1925050503d8060008114610ee4576040519150601f19603f3d011682016040523d82523d6000602084013e610ee9565b606091505b5050905080610f24576040517f90b8ec1800000000000000000000000000000000000000000000000000000000815260040160405180910390fd5b847fcb4c701313b0db2ed5902d923d21b853d01e3a14cb2af2dce00e309eaa0e134c60405160405180910390a2505b50505050565b60036020528160005260406000208181548110610f7557600080fd5b906000526020600020016000915091509054906101000a900473ffffffffffffffffffffffffffffffffffffffff1681565b6000600160008381526020019081526020016000209050600081600001540361100757816040517f806b2c5e000000000000000000000000000000000000000000000000000000008152600401610ffe9190611ba4565b60405180910390fd5b6001600381111561101b5761101a611d6c565b5b8160060160009054906101000a900460ff16600381111561103f5761103e611d6c565b5b146110955760018160060160009054906101000a900460ff166040517fef9b554500000000000000000000000000000000000000000000000000000000815260040161108c929190612456565b60405180910390fd5b8060010160009054906101000a900473ffffffffffffffffffffffffffffffffffffffff1673ffffffffffffffffffffffffffffffffffffffff163373ffffffffffffffffffffffffffffffffffffffff161461111e576040517fcb1e8f3800000000000000000000000000000000000000000000000000000000815260040160405180910390fd5b60006127108260030154836002015461113791906120cb565b6111419190612594565b9050600081836002015461115591906123eb565b905080341015611191576040517f74eb030300000000000000000000000000000000000000000000000000000000815260040160405180910390fd5b8034111561124f57600081346111a791906124eb565b905060003373ffffffffffffffffffffffffffffffffffffffff16826040516111cf90612550565b60006040518083038185875af1925050503d806000811461120c576040519150601f19603f3d011682016040523d82523d6000602084013e611211565b606091505b505090508061124c576040517f90b8ec1800000000000000000000000000000000000000000000000000000000815260040160405180910390fd5b50505b6000600360008681526020019081526020016000208054806020026020016040519081016040528092919081815260200182805480156112e457602002820191906000526020600020905b8160009054906101000a900473ffffffffffffffffffffffffffffffffffffffff1673ffffffffffffffffffffffffffffffffffffffff168152602001906001019080831161129a575b5050505050905060006001905060005b825181101561146b576000838281518110611312576113116125c5565b5b602002602001015190506000600260008a815260200190815260200160002060008373ffffffffffffffffffffffffffffffffffffffff1673ffffffffffffffffffffffffffffffffffffffff16815260200190815260200160002054905060008860020154878361138491906120cb565b61138e9190612594565b905060008373ffffffffffffffffffffffffffffffffffffffff16826040516113b690612550565b60006040518083038185875af1925050503d80600081146113f3576040519150601f19603f3d011682016040523d82523d6000602084013e6113f8565b606091505b505090508061140a576000955061145a565b8373ffffffffffffffffffffffffffffffffffffffff168b7fa4f3ec465aec5a195ce9d9f2d2c4edb84c30f5a55fec98f74e76ede70df3ba61846040516114519190611ba4565b60405180910390a35b5050505080806001019150506112f4565b50806114a3576040517f282a983800000000000000000000000000000000000000000000000000000000815260040160405180910390fd5b60028560060160006101000a81548160ff021916908360038111156114cb576114ca611d6c565b5b02179055503373ffffffffffffffffffffffffffffffffffffffff16867f512d3e65b3e58c2187bb1872aa435dba5bd09c1c03823ba56ab70aac411e4a21856040516115179190611ba4565b60405180910390a3505050505050565b6000806001600084815260200190815260200160002060405180610140016040529081600082015481526020016001820160009054906101000a900473ffffffffffffffffffffffffffffffffffffffff1673ffffffffffffffffffffffffffffffffffffffff1673ffffffffffffffffffffffffffffffffffffffff1681526020016002820154815260200160038201548152602001600482015481526020016005820180546115d79061213c565b80601f01602080910402602001604051908101604052809291908181526020018280546116039061213c565b80156116505780601f1061162557610100808354040283529160200191611650565b820191906000526020600020905b81548152906001019060200180831161163357829003601f168201915b505050505081526020016006820160009054906101000a900460ff16600381111561167e5761167d611d6c565b5b60038111156116905761168f611d6c565b5b81526020016007820154815260200160088201548152602001600982015481525050905060008160000151036116fd57826040517f806b2c5e0000000000000000000000000000000000000000000000000000000081526004016116f49190611ba4565b60405180910390fd5b60006127108260600151836040015161171691906120cb565b6117209190612594565b905080826040015161173291906123eb565b92505050919050565b6002602052816000526040600020602052806000526040600020600091509150505481565b60016020528060005260406000206000915090508060000154908060010160009054906101000a900473ffffffffffffffffffffffffffffffffffffffff16908060020154908060030154908060040154908060050180546117c19061213c565b80601f01602080910402602001604051908101604052809291908181526020018280546117ed9061213c565b801561183a5780601f1061180f5761010080835404028352916020019161183a565b820191906000526020600020905b81548152906001019060200180831161181d57829003601f168201915b5050505050908060060160009054906101000a900460ff1690806007015490806008015490806009015490508a565b60405180610140016040528060008152602001600073ffffffffffffffffffffffffffffffffffffffff16815260200160008152602001600081526020016000815260200160608152602001600060038111156118c9576118c8611d6c565b5b81526020016000815260200160008152602001600081525090565b6000604051905090565b600080fd5b600080fd5b6000819050919050565b61190b816118f8565b811461191657600080fd5b50565b60008135905061192881611902565b92915050565b600080fd5b600080fd5b6000601f19601f8301169050919050565b7f4e487b7100000000000000000000000000000000000000000000000000000000600052604160045260246000fd5b61198182611938565b810181811067ffffffffffffffff821117156119a05761199f611949565b5b80604052505050565b60006119b36118e4565b90506119bf8282611978565b919050565b600067ffffffffffffffff8211156119df576119de611949565b5b6119e882611938565b9050602081019050919050565b82818337600083830152505050565b6000611a17611a12846119c4565b6119a9565b905082815260208101848484011115611a3357611a32611933565b5b611a3e8482856119f5565b509392505050565b600082601f830112611a5b57611a5a61192e565b5b8135611a6b848260208601611a04565b91505092915050565b60008060008060808587031215611a8e57611a8d6118ee565b5b6000611a9c87828801611919565b9450506020611aad87828801611919565b9350506040611abe87828801611919565b925050606085013567ffffffffffffffff811115611adf57611ade6118f3565b5b611aeb87828801611a46565b91505092959194509250565b600073ffffffffffffffffffffffffffffffffffffffff82169050919050565b6000611b2282611af7565b9050919050565b611b3281611b17565b8114611b3d57600080fd5b50565b600081359050611b4f81611b29565b92915050565b60008060408385031215611b6c57611b6b6118ee565b5b6000611b7a85828601611919565b9250506020611b8b85828601611b40565b9150509250929050565b611b9e816118f8565b82525050565b6000602082019050611bb96000830184611b95565b92915050565b600060208284031215611bd557611bd46118ee565b5b6000611be384828501611919565b91505092915050565b600081519050919050565b600082825260208201905092915050565b6000819050602082019050919050565b611c21816118f8565b82525050565b6000611c338383611c18565b60208301905092915050565b6000602082019050919050565b6000611c5782611bec565b611c618185611bf7565b9350611c6c83611c08565b8060005b83811015611c9d578151611c848882611c27565b9750611c8f83611c3f565b925050600181019050611c70565b5085935050505092915050565b60006020820190508181036000830152611cc48184611c4c565b905092915050565b6000611cd782611af7565b9050919050565b611ce781611ccc565b82525050565b600081519050919050565b600082825260208201905092915050565b60005b83811015611d27578082015181840152602081019050611d0c565b60008484015250505050565b6000611d3e82611ced565b611d488185611cf8565b9350611d58818560208601611d09565b611d6181611938565b840191505092915050565b7f4e487b7100000000000000000000000000000000000000000000000000000000600052602160045260246000fd5b60048110611dac57611dab611d6c565b5b50565b6000819050611dbd82611d9b565b919050565b6000611dcd82611daf565b9050919050565b611ddd81611dc2565b82525050565b600061014083016000830151611dfc6000860182611c18565b506020830151611e0f6020860182611cde565b506040830151611e226040860182611c18565b506060830151611e356060860182611c18565b506080830151611e486080860182611c18565b5060a083015184820360a0860152611e608282611d33565b91505060c0830151611e7560c0860182611dd4565b5060e0830151611e8860e0860182611c18565b50610100830151611e9d610100860182611c18565b50610120830151611eb2610120860182611c18565b508091505092915050565b60006020820190508181036000830152611ed78184611de3565b905092915050565b60008060408385031215611ef657611ef56118ee565b5b6000611f0485828601611919565b9250506020611f1585828601611919565b9150509250929050565b611f2881611b17565b82525050565b6000602082019050611f436000830184611f1f565b92915050565b611f5281611ccc565b82525050565b600082825260208201905092915050565b6000611f7482611ced565b611f7e8185611f58565b9350611f8e818560208601611d09565b611f9781611938565b840191505092915050565b611fab81611dc2565b82525050565b600061014082019050611fc7600083018d611b95565b611fd4602083018c611f49565b611fe1604083018b611b95565b611fee606083018a611b95565b611ffb6080830189611b95565b81810360a083015261200d8188611f69565b905061201c60c0830187611fa2565b61202960e0830186611b95565b612037610100830185611b95565b612045610120830184611b95565b9b9a5050505050505050505050565b7f4e487b7100000000000000000000000000000000000000000000000000000000600052601160045260246000fd5b600061208e826118f8565b91507fffffffffffffffffffffffffffffffffffffffffffffffffffffffffffffffff82036120c0576120bf612054565b5b600182019050919050565b60006120d6826118f8565b91506120e1836118f8565b92508282026120ef816118f8565b9150828204841483151761210657612105612054565b5b5092915050565b7f4e487b7100000000000000000000000000000000000000000000000000000000600052602260045260246000fd5b6000600282049050600182168061215457607f821691505b6020821081036121675761216661210d565b5b50919050565b60008190508160005260206000209050919050565b60006020601f8301049050919050565b600082821b905092915050565b6000600883026121cf7fffffffffffffffffffffffffffffffffffffffffffffffffffffffffffffffff82612192565b6121d98683612192565b95508019841693508086168417925050509392505050565b6000819050919050565b600061221661221161220c846118f8565b6121f1565b6118f8565b9050919050565b6000819050919050565b612230836121fb565b61224461223c8261221d565b84845461219f565b825550505050565b600090565b61225961224c565b612264818484612227565b505050565b5b818110156122885761227d600082612251565b60018101905061226a565b5050565b601f8211156122cd5761229e8161216d565b6122a784612182565b810160208510156122b6578190505b6122ca6122c285612182565b830182612269565b50505b505050565b600082821c905092915050565b60006122f0600019846008026122d2565b1980831691505092915050565b600061230983836122df565b9150826002028217905092915050565b61232282611ced565b67ffffffffffffffff81111561233b5761233a611949565b5b612345825461213c565b61235082828561228c565b600060209050601f8311600181146123835760008415612371578287015190505b61237b85826122fd565b8655506123e3565b601f1984166123918661216d565b60005b828110156123b957848901518255600182019150602085019450602081019050612394565b868310156123d657848901516123d2601f8916826122df565b8355505b6001600288020188555050505b505050505050565b60006123f6826118f8565b9150612401836118f8565b925082820190508082111561241957612418612054565b5b92915050565b60006060820190506124346000830186611b95565b6124416020830185611b95565b61244e6040830184611b95565b949350505050565b600060408201905061246b6000830185611fa2565b6124786020830184611fa2565b9392505050565b7f4c6f616e206973206e6f74207965742064756500000000000000000000000000600082015250565b60006124b5601383611f58565b91506124c08261247f565b602082019050919050565b600060208201905081810360008301526124e4816124a8565b9050919050565b60006124f6826118f8565b9150612501836118f8565b925082820390508181111561251957612518612054565b5b92915050565b600081905092915050565b50565b600061253a60008361251f565b91506125458261252a565b600082019050919050565b600061255b8261252d565b9150819050919050565b7f4e487b7100000000000000000000000000000000000000000000000000000000600052601260045260246000fd5b600061259f826118f8565b91506125aa836118f8565b9250826125ba576125b9612565565b5b828204905092915050565b7f4e487b7100000000000000000000000000000000000000000000000000000000600052603260045260246000fdfea2646970667358221220ff22801962f4737b698d015e3af727056ec56c693c7597dd3f0a54eb10fae68864736f6c634300081c0033",
  "linkReferences": {},
  "deployedLinkReferences": {}
}