{
  "_format": "hh-sol-artifact-1",
  "contractName": "MicroLend",
  "sourceName": "contracts/MicroLend.sol",
  "abi": [
    {
      "anonymous": false,
      "inputs": [
        {
          "indexed": true,
          "internalType": "uint256",
          "name": "loanId",
          "type": "uint256"
        }
      ],
      "name": "LoanCancelled",
      "type": "event"
    },
    {
      "anonymous": false,
      "inputs": [
        {
          "indexed": true,
          "internalType": "uint256",
          "name": "loanId",
          "type": "uint256"
        },
        {
          "indexed": true,
          "internalType": "address",
          "name": "lender",
          "type": "address"
        },
        {
          "indexed": false,
          "internalType": "uint256",
          "name": "fundedTimestamp",
          "type": "uint256"
        },
        {
          "indexed": false,
          "internalType": "uint256",
          "name": "repaymentDueDate",
          "type": "uint256"
        }
      ],
      "name": "LoanFunded",
      "type": "event"
    },
    {
      "anonymous": false,
      "inputs": [
        {
          "indexed": true,
          "internalType": "uint256",
          "name": "loanId",
          "type": "uint256"
        },
        {
          "indexed": false,
          "internalType": "uint256",
          "name": "amountRepaid",
          "type": "uint256"
        }
      ],
      "name": "LoanRepaid",
      "type": "event"
    },
    {
      "anonymous": false,
      "inputs": [
        {
          "indexed": true,
          "internalType": "uint256",
          "name": "loanId",
          "type": "uint256"
        },
        {
          "indexed": true,
          "internalType": "address",
          "name": "borrower",
          "type": "address"
        },
        {
          "indexed": false,
          "internalType": "uint256",
          "name": "amount",
          "type": "uint256"
        },
        {
          "indexed": false,
          "internalType": "uint256",
          "name": "interestRateBPS",
          "type": "uint256"
        },
        {
          "indexed": false,
          "internalType": "uint256",
          "name": "durationSeconds",
          "type": "uint256"
        },
        {
          "indexed": false,
          "internalType": "enum MicroLend.CollateralType",
          "name": "collateralType",
          "type": "uint8"
        }
      ],
      "name": "LoanRequested",
      "type": "event"
    },
    {
      "inputs": [],
      "name": "MAX_INTEREST_RATE_BPS",
      "outputs": [
        {
          "internalType": "uint256",
          "name": "",
          "type": "uint256"
        }
      ],
      "stateMutability": "view",
      "type": "function"
    },
    {
      "inputs": [],
      "name": "MIN_DURATION_SECONDS",
      "outputs": [
        {
          "internalType": "uint256",
          "name": "",
          "type": "uint256"
        }
      ],
      "stateMutability": "view",
      "type": "function"
    },
    {
      "inputs": [
        {
          "internalType": "uint256",
          "name": "",
          "type": "uint256"
        }
      ],
      "name": "loans",
      "outputs": [
        {
          "internalType": "uint256",
          "name": "id",
          "type": "uint256"
        },
        {
          "internalType": "address",
          "name": "borrower",
          "type": "address"
        },
        {
          "internalType": "address",
          "name": "lender",
          "type": "address"
        },
        {
          "internalType": "uint256",
          "name": "amountRequested",
          "type": "uint256"
        },
        {
          "internalType": "uint256",
          "name": "interestRateBPS",
          "type": "uint256"
        },
        {
          "internalType": "uint256",
          "name": "durationSeconds",
          "type": "uint256"
        },
        {
          "internalType": "uint256",
          "name": "requestedTimestamp",
          "type": "uint256"
        },
        {
          "internalType": "uint256",
          "name": "fundedTimestamp",
          "type": "uint256"
        },
        {
          "internalType": "uint256",
          "name": "repaymentDueDate",
          "type": "uint256"
        },
        {
          "internalType": "uint256",
          "name": "amountRepaid",
          "type": "uint256"
        },
        {
          "internalType": "enum MicroLend.LoanStatus",
          "name": "status",
          "type": "uint8"
        },
        {
          "internalType": "string",
          "name": "purpose",
          "type": "string"
        },
        {
          "internalType": "string",
          "name": "detailsURI",
          "type": "string"
        },
        {
          "internalType": "enum MicroLend.CollateralType",
          "name": "collateralType",
          "type": "uint8"
        },
        {
          "internalType": "address",
          "name": "collateralContract",
          "type": "address"
        },
        {
          "internalType": "uint256",
          "name": "collateralValueOrId",
          "type": "uint256"
        }
      ],
      "stateMutability": "view",
      "type": "function"
    },
    {
      "inputs": [
        {
          "internalType": "address",
          "name": "",
          "type": "address"
        },
        {
          "internalType": "uint256",
          "name": "",
          "type": "uint256"
        }
      ],
      "name": "loansByBorrower",
      "outputs": [
        {
          "internalType": "uint256",
          "name": "",
          "type": "uint256"
        }
      ],
      "stateMutability": "view",
      "type": "function"
    },
    {
      "inputs": [
        {
          "internalType": "address",
          "name": "",
          "type": "address"
        },
        {
          "internalType": "uint256",
          "name": "",
          "type": "uint256"
        }
      ],
      "name": "loansByLender",
      "outputs": [
        {
          "internalType": "uint256",
          "name": "",
          "type": "uint256"
        }
      ],
      "stateMutability": "view",
      "type": "function"
    },
    {
      "inputs": [],
      "name": "nextLoanId",
      "outputs": [
        {
          "internalType": "uint256",
          "name": "",
          "type": "uint256"
        }
      ],
      "stateMutability": "view",
      "type": "function"
    },
    {
      "inputs": [
        {
          "internalType": "uint256",
          "name": "_amountRequestedWei",
          "type": "uint256"
        },
        {
          "internalType": "string",
          "name": "_purpose",
          "type": "string"
        },
        {
          "internalType": "string",
          "name": "_detailsURI",
          "type": "string"
        },
        {
          "internalType": "uint256",
          "name": "_durationSeconds",
          "type": "uint256"
        },
        {
          "internalType": "uint256",
          "name": "_interestRateBPS",
          "type": "uint256"
        },
        {
          "internalType": "enum MicroLend.CollateralType",
          "name": "_collateralType",
          "type": "uint8"
        },
        {
          "internalType": "address",
          "name": "_collateralContract",
          "type": "address"
        },
        {
          "internalType": "uint256",
          "name": "_collateralValueOrId",
          "type": "uint256"
        }
      ],
      "name": "requestLoan",
      "outputs": [],
      "stateMutability": "nonpayable",
      "type": "function"
    }
  ],
  "bytecode": "0x6080806040523461001b576001600055610c8190816100218239f35b600080fdfe6080604052600436101561001257600080fd5b60003560e01c80634b7f1e5a14610a085780635108f0bf146109ea5780636becc9f314610992578063709ae4411461097557806387c514591461095757806392b99778146101b95763e1ec3c681461006957600080fd5b346101b45760203660031901126101b457600435600052600160205260406000208054600160a01b6001900360018301541691600160a01b60019003600282015416916003820154600483015493600584015460068501546007860154600887015491600988015493600a89015460ff1699600b8a016100e890610b58565b976100f5600c8c01610b58565b97600d8c01549b600e01549a6040519e8f91825260208201526040015260608d015260808c015260a08b015260c08a015260e0890152610100880152610120870152600585101561019e5761016161017092879661014088015261020080610160890152870190610bfe565b90858203610180870152610bfe565b916101826101a0850160ff8316610c3e565b60081c6001600160a01b03166101c08401526101e08301520390f35b634e487b7160e01b600052602160045260246000fd5b600080fd5b346101b4576101003660031901126101b45760243567ffffffffffffffff81116101b4576101eb903690600401610ac7565b60443567ffffffffffffffff81116101b45761020b903690600401610ac7565b90600460a43510156101b45760c4356001600160a01b03811690036101b457600260005414610912576002600055600435156108c257620151806064351061087d5760843515158061086f575b1561082b578051156107e65760009060a4356106f65760c4356001600160a01b03166106955760e435610636575b6002549182600052600160205260406000209183835560018301336bffffffffffffffffffffffff60a01b825416179055600435600384015560843560048401556064356005840155426006840155600a830160ff19815416905580519067ffffffffffffffff821161048f578190610302600b860154610b1e565b601f81116105e3575b50602090601f831160011461057157600092610566575b50508160011b916000199060031b1c191617600b8301555b835167ffffffffffffffff811161048f57610358600c840154610b1e565b601f811161051f575b506020601f82116001146104b05781929394956000926104a5575b50508160011b916000199060031b1c191617600c8301555b600d82019061019e5780546001600160a81b03191660a43560ff161760c43560081b610100600160a81b031617905560e435600e919091015533600090815260036020526040902080546801000000000000000081101561048f576103fe91600182018155610a77565b9080549160031b600019928385831b921b1916179055600254908114610479576001016002556040519060043582526084356020830152606435604083015261044c6060830160a435610c3e565b7f5f19000fa9e0f0a6b43e9732d4b129ea695bbb498d3b44864426d985bb77f5e960803393a36001600055005b634e487b7160e01b600052601160045260246000fd5b634e487b7160e01b600052604160045260246000fd5b01519050858061037c565b600c840160005260206000209060005b601f1984168110610507575060019394959683601f198116106104ee575b505050811b01600c830155610394565b015160001960f88460031b161c191690558580806104de565b9091602060018192858b0151815501930191016104c0565b600c84016000526020600020601f830160051c81016020841061055f575b601f830160051c82018110610553575050610361565b6000815560010161053d565b508061053d565b015190508680610322565b9250600b85016000526020600020906000935b601f19841685106105c8576001945083601f198116106105af575b505050811b01600b83015561033a565b015160001960f88460031b161c1916905586808061059f565b81810151835560209485019460019093019290910190610584565b909150600b85016000526020600020601f840160051c81016020851061062f575b90849392915b601f830160051c8201811061062057505061030b565b6000815585945060010161060a565b5080610604565b60405162461bcd60e51b815260206004820152603160248201527f4d6963726f4c656e643a2056616c75652f4944206d757374206265203020666f6044820152701c88139bdb994818dbdb1b185d195c985b607a1b6064820152608490fd5b60405162461bcd60e51b815260206004820152603360248201527f4d6963726f4c656e643a20436f6e7472616374206d7573742062652030783020604482015272199bdc88139bdb994818dbdb1b185d195c985b606a1b6064820152608490fd5b6000915060a43560011480156107d6575b156102865760c4356001600160a01b0316156107795760e4356102865760405162461bcd60e51b815260206004820152602760248201527f4d6963726f4c656e643a20436f6c6c61746572616c2076616c75652f49442072604482015266195c5d5a5c995960ca1b6064820152608490fd5b60405162461bcd60e51b815260206004820152602f60248201527f4d6963726f4c656e643a20436f6c6c61746572616c20636f6e7472616374206160448201526e19191c995cdcc81c995c5d5a5c9959608a1b6064820152608490fd5b506000915060a435600214610707565b60405162461bcd60e51b815260206004820152601b60248201527f4d6963726f4c656e643a20507572706f736520726571756972656400000000006044820152606490fd5b606460405162461bcd60e51b815260206004820152602060248201527f4d6963726f4c656e643a20496e76616c696420696e74657265737420726174656044820152fd5b506113886084351115610258565b60405162461bcd60e51b815260206004820152601d60248201527f4d6963726f4c656e643a204475726174696f6e20746f6f2073686f72740000006044820152606490fd5b60405162461bcd60e51b815260206004820152602260248201527f4d6963726f4c656e643a20416d6f756e74206d75737420626520706f73697469604482015261766560f01b6064820152608490fd5b60405162461bcd60e51b815260206004820152601f60248201527f5265656e7472616e637947756172643a207265656e7472616e742063616c6c006044820152606490fd5b346101b45760003660031901126101b4576020600254604051908152f35b346101b45760003660031901126101b45760206040516113888152f35b346101b45760403660031901126101b4576109ab610a61565b6001600160a01b03166000908152600460205260409020805460243591908210156101b4576020916109dc91610a77565b90546040519160031b1c8152f35b346101b45760003660031901126101b4576020604051620151808152f35b346101b45760403660031901126101b457610a21610a61565b6001600160a01b03166000908152600360205260409020805460243591908210156101b457602091610a5291610a77565b90549060031b1c604051908152f35b600435906001600160a01b03821682036101b457565b8054821015610a8f5760005260206000200190600090565b634e487b7160e01b600052603260045260246000fd5b90601f8019910116810190811067ffffffffffffffff82111761048f57604052565b81601f820112156101b45780359067ffffffffffffffff821161048f5760405192610afc601f8401601f191660200185610aa5565b828452602083830101116101b457816000926020809301838601378301015290565b90600182811c92168015610b4e575b6020831014610b3857565b634e487b7160e01b600052602260045260246000fd5b91607f1691610b2d565b9060405191826000825492610b6c84610b1e565b908184526001948581169081600014610bdb5750600114610b98575b5050610b9692500383610aa5565b565b9093915060005260209081600020936000915b818310610bc3575050610b9693508201013880610b88565b85548884018501529485019487945091830191610bab565b915050610b9694506020925060ff191682840152151560051b8201013880610b88565b919082519283825260005b848110610c2a575050826000602080949584010152601f8019910116010190565b602081830181015184830182015201610c09565b90600482101561019e575256fea2646970667358221220b7dcae5768a3995aa9173a952aa3a28e93e53c637d7d8a64d69fa8d573eb06b464736f6c63430008130033",
  "linkReferences": {},
  "deployedLinkReferences": {}
}